:020000040040BA
:10000000182740206911400065114000651140002B
:1000100065114000651140006511400000000000BE
:10002000000000000000000000000000651140001A
:10003000651140000000000065114000651140009E
:1000400065114000651140006511400065114000D8
:1000500065114000651140006511400065114000C8
:100060006511400000000000C90C4000DD0C40009C
:10007000F10C400065114000651140006511400021
:10008000050D4000190D400065114000651140004C
:100090006511400065114000651140006511400088
:1000A0006511400065114000651140006511400078
:1000B0006511400065114000651140006511400068
:1000C0006511400065114000651140006511400058
:1000D00000000000651140000000000065114000B4
:1000E0006511400065114000651140006511400038
:1000F0006511400065114000651140006511400028
:100100006511400065114000651140006511400017
:100110006511400000000000000000000000000029
:1001200065114000651140006511400065114000F7
:10013000651140000000000065114000651140009D
:1001400010B5054C237833B9044B13B10448AFF311
:1001500000800123237010BD4C04402000000000EB
:100160009C2A40000C4B43B10C480D4910B5AFF32D
:1001700000800C48036823B910BD0A48036833B9EE
:100180007047094B002BF7D0BDE810401847064BCD
:10019000002BF5D0184700BF000000009C2A40004B
:1001A000500440209C2A40000000000008B5074B86
:1001B000984203D0064B984204D008BD1520054B49
:1001C000984708BD2A20034B9847F6E70080004077
:1001D000008005404D0E4000436823F470234360C7
:1001E0004368090401F4702119434160704730B439
:1001F00043F69924056915F0020F03D1013CF9D1AA
:1002000001200CE0446814F0020F06D0120402F43E
:10021000702211430BB141F08071C160002030BCED
:10022000704732B900EB8100036B23F001030363D5
:10023000704700EB8100036B43F0010303637047D9
:1002400032B900EB8100036B23F0020303637047B4
:1002500000EB8100036B43F0020303637047042A41
:1002600003D06AB1082A16D0704700EB8100036BF7
:1002700023F008030363036B43F004030363704735
:1002800000EB8100036B23F008030363036B23F08F
:1002900004030363704700EB8100036B43F0080322
:1002A0000363E1E700EB81010B6B23F0F0030B63C9
:1002B0000B6B1A430A637047431E1944B1FBF0F0FD
:1002C000431EFE2B94BF00B24FF0FF3070477AB14F
:1002D00010B4144600EB81010B6B23F47F430B63D6
:1002E0000A6B42EA04220A6300205DF8044B70475F
:1002F0004FF0FF3070470000014B1860704700BF9F
:1003000068044020024B1B6803EBC0104254704746
:1003100068044020024B1B6803EBC010405C704730
:10032000680440202DE9F0478418802C02DDC0F1DC
:100330008004E2B222B3CD08A1EBC501012606FA82
:1003400001F1CEB2012B1DD0002B35D0022B17D1DD
:100350000138C7B2D419E4B2DFF890A04FF0000919
:10036000DFF88C8021462846D04786EA00024B46BB
:10037000D2B221462846C047013CE4B2BC42F1D18A
:10038000BDE8F0870138C7B2D419E4B2DFF85CA049
:100390004FF00009DFF8588021462846D04746EA4A
:1003A00000024B46D2B221462846C047013CE4B287
:1003B000BC42F1D1BDE8F0870138C7B2D419E4B22C
:1003C000DFF82880CE43DFF8289021462846C04732
:1003D00006EA00020023D2B221462846C847013C63
:1003E000E4B2BC42F1D1BDE8F08700BF2506400071
:1003F000210540002DE9F8439DF820708BB11C4683
:10040000904606464D1EEDB22C44E4B2DFF818903B
:100410003B46424621463046C847013CE4B2AC4226
:10042000F6D1BDE8F88300BF250340002DE9F04F69
:1004300083B00446884691469B465B7A9BF8082029
:100440000021009149464046214DA8479BF80030C5
:1004500013B103B0BDE8F08F9BF80820D30812F069
:10046000070F18BF01339BF809A09BF80A70E71B20
:1004700017FB0AF717FB03F7DBF8043013FA87F7CB
:100480001FE06400E4B20135EBB29E4210D9EBB23A
:1004900008EB0300C0B213F0070F08BF17F8014BB9
:1004A00014F0800FEDD0012249460A4B9847E8E747
:1004B00009F101095FFA89F90AF1FF3A1AF0FF0A16
:1004C000C7D09BF80860002EF2D000252C46DEE74E
:1004D000F5034000C10540002DE9F843044690466D
:1004E0001D4689460D4F0E4608E06A7A01324244A5
:1004F0005FFA82F8B14614F8013F6BB120780A2800
:10050000F3D00D28F7D02B4642464946B8472B7A00
:1005100099445FFA89F9EEE7BDE8F8832D044000BD
:1005200070B504460D4616461BB90D4B9847B042B0
:1005300015D03246294620460A4B984704F00F0052
:1005400040F0B000084CA047C5F3021040F0100086
:10055000A04705F00F00A0473046044B984770BDF8
:1005600015034000050340003106400051084000DB
:100570002DE9F0410D480E4B98470E4B984740200F
:100580000D4B984700254FF001082F460B4E0024D5
:1005900043463A46E1B22846B0470134802CF7D1B1
:1005A0000135EDB2042DF2D1BDE8F0816C0440209C
:1005B000F90240007106400031064000210540006C
:1005C000C3092AD11F2928D82DE9F0411446054630
:1005D000CE08A1EBC601012202FA01F75FFA87F803
:1005E000014630460D4B98470246012C09D064B1B4
:1005F000022C0ED0002329463046094CA047BDE806
:10060000F08148EA0002D2B2F4E720EA0702D2B24F
:10061000F0E788EA0002D2B2ECE770471503400029
:100620002105400008B5014B984708BD150340005F
:1006300038B505460822094B5A63094C012120466A
:10064000084B984701231A4629462046064CA047E6
:100650004FF4FD70054B984738BD00BF00100E40A9
:1006600000800040D9014000EF014000010040201F
:100670002DE9F843664D4FF400362E61C5F8A060B1
:10068000644B08271F61C3F8A0706E66C5F89060C0
:100690006E656E62C5F880602A6F22F400322A67A8
:1006A0006A6F22F400326A675F66C3F890705F6514
:1006B0005F62C3F880701A6F22F008021A675A6FDF
:1006C00022F008025A671F602E601F632E63DFF856
:1006D0007C8100234FF480024FF0805140464E4C05
:1006E000A04700234FF400124FF080514046A0472E
:1006F00000234FF000724FF080514046A047002386
:100700004FF480024FF080514046A04700234FF441
:1007100000124FF080514046A04700234FF0007276
:100720004FF080514046A0473C4C4FF00209C4F8BE
:1007300000904FF08008C4F80080636843F0010324
:1007400063603A4601212046354B9847002201213B
:100750002046344B9847002201212046324B9847CF
:10076000636823F0020363600022012120462F4BBF
:100770009847636823F080036360636843F0100365
:1007800063602B492B482C4B9847C2B2012120466D
:100790002A4B984720462A4B9847012323606E63D3
:1007A00040F6B830274CA0472E6340F6B830A0473B
:1007B0002E63A820244CA0471F20A047D320A04789
:1007C0000020A0474020A047A120A047C820A04764
:1007D000DA20A0474846A0478120A0478F20A047A5
:1007E000A420A047A620A047D520A0474046A04768
:1007F0008D20A0471420A047DB20A0474020A04721
:10080000D920A047F120A047AF20A047BDE8F8833A
:1008100000120E4000100E40390B400000800040D6
:100820005F0240002302400041024000A502400058
:1008300080D1F00840420F00B9024000CF024000D2
:10084000AD014000010040203106400000140E4080
:1008500038B505460822094B1A63094C0121204688
:10086000084B984701231A4629462046064CA047C4
:100870004FF4FD70054B984738BD00BF00100E4087
:1008800000800040D9014000EF01400001004020FD
:1008900010B51048104B98473E2100200F4B984749
:1008A0000F4CA0470028FCD00E4B98470E4A0F4B28
:1008B0009A620F4CA0470028FCD002200D4B9847AD
:1008C00000200D4B98470D4B98470248024B984724
:1008D00010BD00BF00A3E1113D134000C90D400051
:1008E0001D0E40002D0E4000013F182000060E4056
:1008F0003D0E40002D0D4000650D400031124000BE
:10090000F8B54FF40042484B5A60BFF34F8FBFF326
:100910006F8F464B0022C3F850225A6942F40032CE
:100920005A61BFF34F8FBFF36F8FD3F88070C7F357
:100930004E3607F007000430C7F3C907B7FA87FE41
:100940000EF01F0EBFF34F8F4FF0FF3404FA00FC80
:1009500006FA00F004FA0EF407FA0EFE1D463A46B7
:10096000734640EA0301C5F86012013A2344B2F12C
:10097000FF3FF6D1013E6044B6F1FF3FEFD1BFF338
:100980004F8F2A4B5A6942F480325A61BFF34F8F1E
:10099000BFF36F8F264A27495160A1F580715160DE
:1009A000BFF34F8FBFF36F8FD3F8902222F0010275
:1009B000C3F89022D3F8942222F00102C3F89422C3
:1009C000BFF34F8FBFF36F8F0A201B4CA0470B2044
:1009D000A0470C20A0471020A0471120A047174B8C
:1009E0004FF480721A61C3F8A0201A63A3F58063E4
:1009F0004FF400625A61C3F8A0205A66C3F89020F1
:100A00005A651A62C3F88420196F21F400611967CE
:100A1000596F21F400615967C3F8C020C3F8D4208E
:100A2000C3F8B020F8BD00BF50180E4000ED00E044
:100A3000000C0E400C08005A4D0E400000120E40F3
:100A400001637047416370474264B1F1C05F3AD0BF
:100A500013D8B1F1006F25D0B1F1805F0AD1036FD7
:100A600013430367436F416F0B4023EA020343675D
:100A7000426070470029FBD17047B1F1205F21D05F
:100A800009D8B1F1005FF3D1036F13430367436FDC
:100A900013434367ECE7B1F1405F13D0B1F1605FFE
:100AA00010D0E5E710B4016F046FD34321401C461A
:100AB00019400167436F416F0B4023404367426019
:100AC0005DF8044B7047036F016F0B4023EA02038C
:100AD0000367436F13434367CAE7416412F0010F92
:100AE0000DD1016612F00A0F0BD0016212F0020F55
:100AF00009D112F0080F08D0C0F8841005E0416653
:100B0000F0E74162F2E7C0F8801041610160704790
:100B100010B4019C41644CB901664BB101654AB9FE
:100B20004163016101605DF8044B70474166F4E781
:100B30004165F4E70163F4E770B582B005461646F7
:100B40001C46B1F1005F14D00AD9B1F1405F24D046
:100B5000B1F1605F21D0B1F1205F17D000201AE021
:100B6000B1F1805F05D0B1F1C05F02D0B1F1006F8B
:100B7000F4D132462846114B984714F0010F02D1A8
:100B80002E66012007E06E66012004E01A46314619
:100B90000B4B9847012002B070BD04F00103009395
:100BA000C4F38003B1F1605F14BF0022012231461B
:100BB0002846044CA0470120EDE700BF490A400049
:100BC000DB0A4000110B400012F0100F12D0C0F8E9
:100BD000B01012F0200F07D0C0F8D41012F0400F60
:100BE00005D0C0F8C0107047C0F8D010F6E7C0F8C4
:100BF000C4107047C0F8B410704701647047C06CEF
:100C00007047806C704700002DE9F041044688462B
:100C10000E4B9847054620460D4B9847054013D08C
:100C20000C4C04F1600603E0B4420DD010345DB109
:100C300020684045F8D161682942F5D0E3689847BB
:100C4000636825EA0305EFE7BDE8F081FF0B40008C
:100C5000030C40006C064020F8B5184C2668062EA0
:100C60002AD84FF0000C6446154F04E00134E4B27A
:100C7000A446A64209D3A64625017D598D42F5D149
:100C800007EB04156D689542F0D10D4D4FEA0E1E2D
:100C900005EB0E0445F80E106260A3600699E16052
:100CA0000136664505D011461A46064B9847002086
:100CB000F8BD02490E60F6E70120F8BDDC064020D1
:100CC0006C064020C90B400008B50A210148024BC0
:100CD000984708BD000E0E40090C400008B50B21D6
:100CE0000148024B984708BD00100E40090C400017
:100CF00008B50C210148024B984708BD00120E4070
:100D0000090C400008B510210148024B984708BD66
:100D100000140E40090C400008B511210148024B97
:100D2000984708BD00160E40090C4000032811D05A
:100D3000042812D002280CBF4FF480710021084A09
:100D4000136B23F440730B431363936E13F0080F7C
:100D5000FBD070474FF44071F1E74FF40071EEE7BC
:100D600000060E40174A136B23F0700318431063FC
:100D7000936E13F0080F0AD14FF4805311498A6E15
:100D800012F0080F03D1013BF9D1012070470D4A41
:100D9000136B23F0030343F002031363936E13F00A
:100DA000080F0AD14FF4805306498A6E12F0080FDB
:100DB00005D1013BF9D10120704700207047002088
:100DC000704700BF00060E40A0B90E48036A090232
:100DD00089B20D4A1A400D4B134319430162024672
:100DE000936E13F0010FFBD0064A116A084B0B43B8
:100DF0001362704703490B6A064A1A40064B1343B5
:100E00000B62704700060E40FCFFC8FF0100370070
:100E100000003701FCFFC8FE02003701024B986E4C
:100E200000F48030704700BF00060E404FF00052C3
:100E3000014B9A62704700BF00060E40024B986E4D
:100E400000F00200704700BF00060E403F281ED889
:100E50001F280CD8114B9A6901238340934318D063
:100E6000012303FA00F00D4B186100207047203871
:100E70000A4BD3F808210123834093430BD001236D
:100E800003FA00F0054BC3F8000100207047012071
:100E90007047002070470020704700BF00060E40DA
:100EA00070470000104A136F23F4C00343F480031B
:100EB0001367116A0D4B0B431362936E13F0080F07
:100EC000FBD04FF4FA7300BF013BFCD1064A136A12
:100ED00013F0080FFBD0044A136F23F4C00343F44C
:100EE00080031367704700BF00060E400400370000
:100EF0002DE9F843431E042B00F20781DFE813F0CD
:100F00000500050015001500F600814A136923F05D
:100F10000403136101227F4B1A70BFF35F8F62B627
:100F2000BFF34F8F30BFBDE8F883044603280CBFE2
:100F300000204FF40010784B984772B6BFF35F8FD4
:100F40000022744B1A700122744B1A70744B1F6A82
:100F50001D6B744AD2F800809E6A734A3A431A6243
:100F600005F00309B9F1010F40F2898025F0030172
:100F700041F0010119631A46936E13F0080FFBD07C
:100F800011F0700F08D021F07001654B19631A46FB
:100F9000936E13F0080FFBD0644B9847604A936E32
:100FA00013F4003FFBD05E4A116A614B0B4043F4DF
:100FB0005C131362936E13F4803FFBD028F47063CC
:100FC000584A1360042C5CD0524C01232370BFF3A9
:100FD0005F8F62B6574B984772B6BFF35F8F00239F
:100FE000237017F0020F55D04D4A136A5249194029
:100FF000524B0B431362116A514B0B4043F45C1389
:101000001362504B3340002B6ED046F00056444BD9
:101010009E620221B9F1020F04D1414A936E13F08E
:10102000020FFBD03E4A136B23F0700305F07000F3
:1010300003431363936E13F0080FFBD0394BC3F8CF
:101040000080A3F5C0631D631A46936E13F0080F6A
:10105000FBD0334A936E0B42FCD000222F4B1A7008
:10106000394B1B681BB198470022374B1A6001228D
:10107000284B1A70BFF35F8F62B6BDE8F88329462C
:101080007EE7A2F5C062116A304B0B4043F45C135B
:10109000136299E717F0010FB3D0214B1B6A13F0CD
:1010A000010F0BD11E490B6A294A1A40294B1343E1
:1010B0000B620A46936E13F0010FFBD0184B1B6AAC
:1010C00013F0807F08D1164A116A234B0B43136239
:1010D000936E13F4803FFBD0114A116A184B0B40FA
:1010E00043F45C1313628CE7002193E7084A136909
:1010F00043F004031361194A194B1A600122054B8E
:101100001A70BFF35F8F62B630BFBDE8F88300BFCF
:1011100000ED00E018004020A10E4000E006402055
:1011200000060E40000C0E40080037002D0E400057
:10113000FFFFC8FEA50E4000FCFFC8FE02003701FD
:1011400087FFC8FF0000FF07E4064020FEFFC8FF3E
:10115000FCFFC8FF0100370000003701040000A5B4
:1011600010180E40FEE7000000B583B0254B264A5C
:101170009A4210D0254B234A9A420CD2013B9B1A2B
:1011800023F00303043313441F4951F8040B42F8BE
:10119000040B9A42F9D11E4B1E4A9A420AD2013BD5
:1011A0009B1A23F0030304331344002142F8041B69
:1011B0009342FBD1184A194B23F07F039360EFF35E
:1011C0001083B3FA83F35B09019372B6BFF35F8FA9
:1011D0000022134B1A700199124A136843F47003EA
:1011E0001360BFF34F8FBFF36F8F29B101220C4BF8
:1011F0001A70BFF35F8F62B60B4B98470B4B984743
:10120000FEE700BF000040209C2A40004C04402024
:10121000180740204C04402000ED00E00000400092
:101220001800402088ED00E0811A40001D154000A4
:101230003B4B1B6B03F00303012B1DD083B1022B2F
:1012400036D0374B1B6B03F07003702B5FD0344BE1
:101250001A6B3449C2F302120B68D3400B6070471B
:10126000314B5B6913F0800F14BF4FF400424FF411
:10127000FA422C4B1A60E4E7294B1B6A13F0807F7B
:1012800003D02A4A274B1A60DBE7294A254B1A600C
:10129000234B1B6A03F07003102B05D0202BD0D1F9
:1012A000224A204B1A60CCE7224A1E4B1A60C8E73C
:1012B0001B4B1B6A13F0807F16D01C4A194B1A6017
:1012C000174B1B6B03F00303022BBAD1144A916A2C
:1012D000926A1448C1F30A41036801FB0333D2B296
:1012E000B3FBF2F30360ACE7114A0E4B1A600C4BF0
:1012F0001B6A03F07003102B05D0202BE0D10B4AA2
:10130000084B1A60DCE70B4A064B1A60D8E7054A1F
:1013100013680949A1FB03135B081360704700BF02
:1013200000060E401C00402010180E40001BB700A5
:1013300000093D0000127A00ABAAAAAA164B9842F7
:1013400013D9164B984215D9154B984216D9154BFF
:10135000984217D9144B984218D9144B984294BF0D
:10136000134A144A144B1A6070474FF08062124BB4
:101370001A607047114A104B1A607047104A0E4BA2
:101380001A6070470F4A0C4B1A6070474FF00422E6
:10139000094B1A60704700BFBFF35E017FE7BD02D3
:1013A0003FDB1C04FFCE7B05BFC2DA067FB63908DF
:1013B0000005000400060004000C0E4000010004BB
:1013C00000020004000300040122014B1A60704770
:1013D000E80640200122014B1A607047EC064020CD
:1013E0000122014B1A607047F00640202DE9F047BA
:1013F00082B03C4B98474FF400423B4B5A600C2064
:101400003A4EB0473A4D00240094234622464FF40A
:1014100080712846DFF8F4A0D0471020B0470C2098
:10142000B0470A20B047DFF8E88001234FF0805230
:101430004FF020514046DFF8DC90C84701234FF0C1
:1014400000424FF020512846C8472A4F01234FF44D
:1014500000224FF020513846C847274B4FF48032C6
:101460001A60C02283F810234FF480521A60802241
:1014700083F80C234FF48061196083F80A234FF03E
:1014800080514046DFF89090C8474FF00041284611
:10149000C8474FF400213846C8470C20B047009495
:1014A000234622464FF400512846D047134B009361
:1014B00050234FF0805210214046114CA047114B51
:1014C000009350234FF000420C212846A0470E4BBA
:1014D000009350234FF400220A213846A04702B05F
:1014E000BDE8F0879108400050180E404D0E4000B6
:1014F00000120E40000E0E4000E100E0C913400053
:10150000590C4000D5134000E1134000110B40007E
:1015100000140E40390B4000FB0B40002DE9F04F4A
:1015200091B0784B9847784B9847784B9847784CD0
:101530000B94784B0C93784B0D9338230E93774B89
:101540000F93774B9847774B0A2211462046764CEB
:10155000A0474C230393754B0593754B04934FF0B1
:10156000000B01230193CDF808B0724DDFF8FCA108
:1015700001E04FF0000B019B9BB96F4B1B681BB147
:1015800000236D4A136001936C4B1B686BB1002202
:101590006A4B1A606A4B1B68002B63D101230193CD
:1015A000E9E70220674B9847E7E7654B1B68FBB10B
:1015B0000022634B1A60029B002B56D04C230393EE
:1015C0005A4B05935A4B04930292564E33460A22C5
:1015D00011465D48544CA04733460A22114610AECE
:1015E000029806EB001050F8140CA0474FF0000BC7
:1015F000019E002EBFD1039B9B45BAD2059B53F899
:101600002B004FF4487393FBF0F319460693049BA9
:1016100053F82B304D4A92FBF3F903FB01F34C4A8C
:1016200082FB0328DB17C3EBA8130793002B4EDDC7
:10163000484BA9FB03014A46D317464C04FB031150
:10164000454A0023454F4FF000083F1848EB01087A
:1016500038464146424CA04700903446414EDDF8A2
:101660001C801BE001230193A2E7382303932A4B3C
:101670000593284B049301230293A6E73320A84740
:101680004FF480715046384FB8474FF400515046E0
:10169000B8473320A8470134A04518D04FF48071D3
:1016A0005046B0474FF400515046B047B9F1000FD3
:1016B000E4D00098A8474FF4807150462A4FB847AD
:1016C0004FF400515046B8470098A847E3E7069802
:1016D000A8B10146C7171F48A1FB00011D4C04FB20
:1016E000071141F22C72002341F22B76002780195A
:1016F00079411B4CA047A8470BF1010B3BE7332076
:10170000A847F9E70109400091084000ED134000A7
:10171000382640007C2740008C29400040264000AD
:10172000710540000C004020D90440005C284000B6
:101730004C26400001004020E8064020EC064020F6
:10174000F0064020F10E40004826400020A107008E
:10175000D34D621000A3E111E0835A00DF835A00E9
:1017600071174000410A4000450A400000120E4037
:1017700053B94AB9002908BF00281CBF4FF0FF31F8
:101780004FF0FF3000F07AB9ADF1080C6DE904CEEE
:1017900000F006F8DDF804E0DDE9022304B070474C
:1017A0002DE9F0478C460D460446089E002B51D18A
:1017B0008A4217466DD9B2FA82FEBEF1000F0BD0F5
:1017C000CEF1200C01FA0EF520FA0CFC02FA0EF70D
:1017D0004CEA050C00FA0EF44FEA174A250CBCFB44
:1017E000FAF81FFA87F90AFB18CC45EA0C4508FB02
:1017F00009F3AB420AD9ED1908F1FF3280F02381D9
:10180000AB4240F22081A8F102083D44ED1AA4B297
:10181000B5FBFAF00AFB105544EA054400FB09F950
:10182000A14509D9E41900F1FF3380F00A81A145EF
:1018300040F2078102383C44A4EB090440EA084026
:101840000021002E61D024FA0EF40023346073606E
:10185000BDE8F0878B4207D9002E54D0002186E8DE
:1018600021000846BDE8F087B3FA83F1002940F073
:101870008E80AB4202D3824200F2FA80841A65EB7A
:1018800003050120AC46002E3FD086E81010BDE8CD
:10189000F08712B90127B7FBF2F7B7FA87FEBEF15E
:1018A000000F34D1EB1B3A0C1FFA87FC0121B3FB6C
:1018B000F2F8250C02FB183345EA03450CFB08F34C
:1018C000AB4207D9ED1908F1FF3002D2AB4200F26A
:1018D000D1808046ED1AA3B2B5FBF2F002FB1055A1
:1018E00043EA05440CFB00FCA44507D9E41900F1C8
:1018F000FF3302D2A44500F2B8801846A4EB0C04D2
:1019000040EA08409DE731463046BDE8F087CEF119
:10191000200405FA0EF307FA0EF720FA04F83A0C41
:1019200025FA04F448EA0308B4FBF2F14FEA18453B
:1019300002FB11441FFA87FC45EA044501FB0CF346
:10194000AB4200FA0EF409D9ED1901F1FF3080F035
:101950008A80AB4240F2878002393D44EB1A1FFA7D
:1019600088F5B3FBF2F002FB103345EA034500FBB8
:101970000CF3AB4207D9ED1900F1FF386FD2AB423F
:101980006DD902383D44EB1A40EA01418FE7C1F1BD
:10199000200722FA07F88B4005FA01F448EA03030E
:1019A00020FA07FE4FEA134CFD404EEA040EB5FB49
:1019B000FCF94FEA1E440CFB19551FFA83F844EA60
:1019C000054509FB08F4AC4202FA01F200FA01FAFB
:1019D00008D9ED1809F1FF3043D2AC4241D9A9F141
:1019E00002091D442D1B1FFA8EFEB5FBFCF00CFBFB
:1019F00010554EEA054400FB08F8A04507D9E41845
:101A000000F1FF3529D2A04527D902381C4440EA0D
:101A10000940A4EB0804A0FB02894C45C6464D468C
:101A200015D312D056B1BAEB0E0364EB050404FAD9
:101A300007F7CB401F43CC40376074600021BDE8FE
:101A4000F0871846F8E69046E0E6C245EAD2B8EBE1
:101A5000020E69EB03050138E4E72846D7E7404664
:101A600091E78146BEE7014678E702383C4445E706
:101A7000084608E7A8F102083D442BE7704700BF7D
:101A800070B50F4E0F4D761BB61018BF002405D051
:101A9000013455F8043B9847A642F9D10A4E0B4D44
:101AA000761B00F0E5FFB61018BF002406D0013405
:101AB00055F8043B9847A642F9D170BD70BD00BFF0
:101AC0007C2A40007C2A4000842A40007C2A400076
:101AD000024B13B1024800F005B870470000000047
:101AE000F11A4000002301461A46184600F01EB8BD
:101AF00038B50A4C0A4D641BA4100AD004F1804387
:101B0000013B05EB8305013C55F804399847002C4F
:101B1000F9D1BDE8384000F0B5BF00BF942A4000BD
:101B2000902A4000704700BF704700BF2DE9F8437E
:101B30002C4D0646286898460F469146FFF7F2FF5F
:101B4000294B1C68D4F84831002B3ED05A681F2A14
:101B50001CDC02F1010E76B103EB82010124C1F815
:101B60008890D3F8880194402043022EC3F888015E
:101B7000C1F8088123D00232C3F804E0286843F892
:101B80002270FFF7D1FF0020BDE8F883174B0BB39D
:101B90004FF4C870AFF300800346D8B1D4F84821A1
:101BA0000260002141600A46C4F848014FF0010E6E
:101BB000C0F88811C0F88C11002EDCD0CCE7D3F827
:101BC0008C110C43C3F88C41D5E704F5A673C4F817
:101BD0004831BBE72868FFF7A7FF4FF0FF30BDE8AB
:101BE000F88300BF480440206C2A40000000000039
:101BF00000000000000000000000000000000000E5
:101C000000000000000000000000000000000000D4
:101C10003000300030003000300030000000300074
:101C20003000000000000000000000006C006C00AC
:101C30006C006C00000000000000000000000000CC
:101C400000000000000000000000280028007C00C8
:101C5000280028007C002800280000000000000068
:101C60000000000010003C004000200010000800B0
:101C700004007800100000000000000000000000D8
:101C800000007C00A400A80050002800540094002C
:101C900088000000000000000000000060009000CC
:101CA00090009000600094008800880070000000A0
:101CB00000000000000000001000100010000000F4
:101CC0000000000000000000000000000000000014
:101CD000000000000800100020002000200020006C
:101CE000200020001000080000000000000000009C
:101CF0002000100008000800080008000800080084
:101D000010002000000000000000280010007C00EF
:101D1000100028000000000000000000000000008B
:101D20000000000000000000000000001000100093
:101D30001000FE0010001000100000000000000065
:101D40000000000000000000000000000000000093
:101D50000000000010003000200000000000000023
:101D6000000000000000000000007C0000000000F7
:101D70000000000000000000000000000000000063
:101D800000000000000000000000300030000000F3
:101D90000000000000000000000008000800100023
:101DA0001000200020004000400000000000000063
:101DB000000000000000780084008C009400A40063
:101DC000C400840078000000000000000000000053
:101DD0000000100030005000100010001000100033
:101DE0007C00000000000000000000000000700007
:101DF000880008001000200040008000F80000006B
:101E000000000000000000000000700088000800D2
:101E1000300008000800880070000000000000008A
:101E2000000000000000080018002800480088009A
:101E3000FC00080008000000000000000000000096
:101E40000000780080008000F00008000800080012
:101E5000F000000000000000000000000000300062
:101E600040008000F00088008800880070000000BA
:101E700000000000000000000000F8000800100052
:101E80001000200020004000400000000000000082
:101E900000000000000070008800880070008800CA
:101EA00088008800700000000000000000000000B2
:101EB000000070008800880088007800080010008A
:101EC00060000000000000000000000000000000B2
:101ED0000000300030000000000030003000000042
:101EE00000000000000000000000000000003000C2
:101EF00030000000000030003000600040000000B2
:101F00000000000000000000080010002000400059
:101F10002000100008000000000000000000000089
:101F200000000000000000007C0000007C000000B9
:101F300000000000000000000000000000000000A1
:101F400040002000100008001000200040000000A9
:101F50000000000000000000000030004800080001
:101F60001000200000000000200000000000000021
:101F700000000000000000003C0042009A00AA009F
:101F8000AA00BE00800078000000000000000000F1
:101F9000000010002800280044007C004400440099
:101FA0004400000000000000000000000000F800F5
:101FB00084008400F800840084008400F80000009D
:101FC000000000000000000000003C004000800015
:101FD00080008000800040003C0000000000000005
:101FE000000000000000F0008800840084008400ED
:101FF00084008800F00000000000000000000000E5
:102000000000F80080008000F00080008000800068
:10201000F800000000000000000000000000F800D0
:1020200080008000F80080008000800080000000B8
:10203000000000000000000000003C0040008000A4
:1020400080009C0084004400380000000000000074
:10205000000000000000880088008800F800880068
:1020600088008800880000000000000000000000D8
:102070000000F800200020002000200020002000A8
:10208000F800000000000000000000000000F80060
:10209000080008000800080008000800F000000020
:1020A0000000000000000000000084008800900094
:1020B000A000D00088008400840000000000000020
:1020C0000000000000008000800080008000800090
:1020D00080008000FC000000000000000000000004
:1020E00000008400CC00CC00B400B4008400840064
:1020F00084000000000000000000000000008400D8
:10210000C400C400A400A400940094008C0000004B
:10211000000000000000000000007800840084003F
:102120008400840084008400780000000000000027
:10213000000000000000F800840084008400F80023
:10214000800080008000000000000000000000000F
:1021500000007800840084008400840084008400EF
:102160007800200018000000000000000000F800C7
:10217000840084008400F80088008400840000004B
:10218000000000000000000000007C0080008000D3
:102190006000180004000400F800000000000000C7
:1021A000000000000000F8002000200020002000B7
:1021B00020002000200000000000000000000000BF
:1021C0000000840084008400840084008400840073
:1021D0007800000000000000000000000000840003
:1021E00084008400480048004800300030000000AF
:1021F000000000000000000000008800A800A80007
:10220000A800A800A8005000500000000000000036
:10221000000000000000880088005000200020001E
:10222000500088008800000000000000000000004E
:102230000000880088008800500050002000200026
:102240002000000000000000000000000000FC0072
:10225000040008001000200040008000FC00000086
:10226000000000000000000070004000400040003E
:10227000400040004000400040004000700000006E
:10228000000000004000400020002000200010005E
:10229000100010000800080000000000000000000E
:1022A00038000800080008000800080008000800BE
:1022B000080008003800000000000000100028009E
:1022C00044000000000000000000000000000000CA
:1022D00000000000000000000000000000000000FE
:1022E00000000000000000003800000000000000B6
:1022F00000000000000020001000000000000000AE
:1023000000000000000000000000000000000000CD
:10231000000000000000700008000800780088003D
:102320007C00000000000000000000008000800031
:102330008000F8008400840084008400F80000001D
:102340000000000000000000000000000000780015
:102350008000800080008000780000000000000005
:10236000000000000400040004007C0084008400DD
:1023700084008C00740000000000000000000000D9
:1023800000000000000078008400FC008000800055
:102390007C00000000000000000000001C00200085
:1023A0002000FC002000200020002000FC00000095
:1023B00000000000000000000000000000007C00A1
:1023C00084008400840084007C0004007800000005
:1023D00000000000800080008000B800C40084007D
:1023E0008400840084000000000000000000000061
:1023F000000010000000700010001000100010001D
:102400007C00000000000000000000000000080048
:102410000000780008000800080008000800080014
:10242000080070000000000080008000800088002C
:102430009000A000D000880088000000000000008C
:1024400000000000E000200020002000200020000C
:1024500020002000F8000000000000000000000044
:10246000000000000000A400FC00A400A400A400E0
:10247000A4000000000000000000000000000000B8
:102480000000B800C40084008400840084000000C0
:1024900000000000000000000000000000007800C4
:1024A00084008400840084007800000000000000A4
:1024B00000000000000000000000B800C40084001C
:1024C00084008400F800800080000000000000000C
:1024D0000000000000007C00840084008400840070
:1024E0007C00040004000000000000000000000068
:1024F0000000D8006000400040004000F0000000F4
:102500000000000000000000000000000000780053
:102510008000400030000800F000000000000000D3
:1025200000000000000000002000FC00200020004F
:10253000200020001C00000000000000000000003F
:1025400000000000000088008800880088008800E3
:102550007C000000000000000000000000000000FF
:10256000000084008400840048004800300000001F
:1025700000000000000000000000000000008800D3
:10258000A800A800A800A80050000000000000005B
:102590000000000000000000000088005000200043
:1025A0002000500088000000000000000000000033
:1025B0000000000000008400840048004800300053
:1025C000100020004000000000000000000000009B
:1025D0000000F8000800100020004000F800000093
:1025E000000000000000000010002000200010008B
:1025F000200020001000200020001000000000003B
:10260000000000001000100010001000000000008A
:10261000100010001000100000000000000000007A
:1026200020001000100020001000100020001000FA
:1026300010002000000000004D4152494F203100A1
:102640004D4152494F203200090900004D0A000057
:102650004D0A0000000000004D0A000000000000CC
:102660002D0800004D0A000000000000400C000092
:102670000000000000000000000000002006000034
:102680000000000000000000000000002D08000015
:102690000000000000000000200600000000000014
:1026A00000000000270500000000000000000000FE
:1026B000E006000000000000B80700000000000075
:1026C00049070000E00600000000000020060000AE
:1026D0004D0A0000400C0000C00D0000000000008A
:1026E000EA0A0000400C0000000000004D0A000053
:1026F000000000002D0800002D090000B8070000B0
:1027000000000000000000002D0800000000000094
:102710000000000020060000000000000000000093
:10272000270500000000000000000000E006000097
:1027300000000000B807000000000000490700008A
:10274000E006000000000000200600004D0A000026
:10275000400C0000C00D000000000000EA0A00006C
:10276000400C0000000000004D0A000000000000C6
:102770002D0800002D090000B80700000601000028
:102780000B020000DC000000B8010000E9000000BE
:10279000D20100000000000000000000060100005F
:1027A0000B020000DC000000B8010000E90000009E
:1027B000D20100000000000000000000AF00000097
:1027C0005D01000093000000260100009C00000055
:1027D000370100000000000000000000AF00000012
:1027E0005D01000093000000260100009C00000035
:1027F0003701000000000000000000003701000069
:10280000150100002601000015010000370100003D
:1028100037010000D0000000C400000015010000D6
:1028200006010000720100005D010000A50000002B
:10283000D2010000B80100009F0100003701000034
:10284000F7000000E9000000DC000000D0000000FC
:102850000000000000000000000000000C0000006C
:102860000C0000000C0000000C0000000C00000038
:102870000C0000000C0000000C0000000C00000028
:102880000C0000000C0000000C0000000C00000018
:102890000C0000000C0000000C0000000C00000008
:1028A0000C0000000C0000000C0000000C000000F8
:1028B0000C0000000C0000000C0000000C000000E8
:1028C0000C0000000C0000000C0000000C000000D8
:1028D0000C0000000C0000000C00000009000000CB
:1028E00009000000090000000C0000000C000000BE
:1028F0000C0000000C0000000C0000000C000000A8
:102900000C0000000C0000000C0000000C00000097
:102910000C0000000C0000000C0000000C00000087
:102920000C0000000C0000000C0000000C00000077
:102930000C0000000C0000000C0000000C00000067
:102940000C0000000C0000000C0000000C00000057
:102950000C0000000C00000009000000090000004D
:10296000090000000C0000000C0000000C0000003A
:102970000C0000000C0000000C0000000C00000027
:102980000C0000000C0000000C0000000C00000017
:102990000C0000000C0000000C0000000C00000007
:1029A0000C00000006000000030000000C00000006
:1029B0000C0000000C0000000C0000000C000000E7
:1029C0000C00000006000000030000000C000000E6
:1029D0000C0000000C0000000C0000000C000000C7
:1029E0000C00000006000000030000000C000000C6
:1029F0000C0000000C0000000C0000000C000000A7
:102A00000C0000000600000006000000120000009C
:102A10001200000012000000060000000600000086
:102A2000060000000600000006000000060000008E
:102A3000120000001200000012000000120000004E
:102A400012000000120000000A0000000A0000004E
:102A50000A0000000A0000000A0000000A0000004E
:102A600003000000030000000300000020004020DD
:102A7000F8B500BFF8BC08BC9E467047D11A4000AC
:102A800065014000F8B500BFF8BC08BC9E46704721
:042A900041014000C0
:082A94000CEDFF7F01000000C2
:102A9C00BFF35F8F0138FBD17047000000000000CE
:102AAC00F01B40000A0E207D0100000000093D00D3
:102ABC00000000000C03402074034020DC03402085
:102ACC0000000000000000000000000000000000FA
:102ADC0000000000000000000000000000000000EA
:102AEC0000000000000000000000000000000000DA
:102AFC0000000000000000000000000000000000CA
:102B0C0000000000000000000000000000000000B9
:102B1C0000000000000000000000000000000000A9
:102B2C000000000000000000000000000000000099
:102B3C000000000000000000000000000000000089
:102B4C000000000000000000000000000000000079
:102B5C000000000000000000010000000000000068
:102B6C000E33CDAB34126DE6ECDE05000B0000002D
:102B7C000000000000000000000000000000000049
:102B8C000000000000000000000000000000000039
:102B9C000000000000000000000000000000000029
:102BAC000000000000000000000000000000000019
:0C2EDC000000000000000000F406402090
:04000005004011693D
:00000001FF
