S00F00006D75736963616C2E7372656327
S214400000E8244020ED034000E9034000E9034000B7
S214400010E9034000E9034000E90340000000000017
S214400020000000000000000000000000E90340005F
S214400030E903400000000000E9034000E9034000F7
S214400040E9034000E9034000E9034000E9034000BB
S214400050E9034000E9034000E9034000E9034000AB
S214400060E9034000000000006503400079034000BB
S2144000708D034000E9034000E9034000E9034000E7
S214400080A1034000B5034000E9034000E9034000F7
S214400090E9034000E9034000E9034000E90340006B
S2144000A0E9034000E9034000E9034000E90340005B
S2144000B0E9034000E9034000E9034000E90340004B
S2144000C0E9034000E9034000E9034000E90340003B
S2144000D0E9034000E9034000E9034000E90340002B
S2144000E0E9034000E9034000E9034000E90340001B
S2144000F0E9034000E9034000E9034000E90340000B
S214400100E9034000E9034000E9034000E9034000FA
S214400110E90340000000000000000000000000006E
S214400120E9034000E9034000E9034000E9034000DA
S214400130E9034000E9034000E9034000E9034000CA
S214400140E9034000E9034000E9034000E9034000BA
S214400150E90340000000000000000000000000002E
S214400160000000000000000010B5054C237833B9AD
S214400170044B13B10448AFF300800123237010BD35
S21440018034044020000000005C0640000C4B43B1A5
S2144001900C480D4910B5AFF300800C48036823B9EE
S2144001A010BD0A48036833B97047094B002BF7D097
S2144001B0BDE810401847064B002BF5D0184700BF47
S2144001C0000000005C064000380440205C0640000A
S2144001D000000000F8B54FF40042464B5A60BFF3AB
S2144001E04F8FBFF36F8F444B0021C3F85012BFF3BD
S2144001F04F8FBFF36F8F5A6942F400325A61BFF394
S2144002004F8FBFF36F8FC3F88410BFF34F8FD3F871
S2144002108070C7F34E35C7F3C9076E014FEA877C37
S21440022043F6E07E1C4606EA0E0062463B4640EA3F
S2144002300201C4F86012013B02F14042B3F1FF3FB5
S214400240F5D1013D203EB5F1FF3FECD1BFF34F8FD6
S214400250294B5A6942F480325A61BFF34F8FBFF33D
S2144002606F8F264A26495160A1F580715160BFF3D1
S2144002704F8FBFF36F8FD3F8902222F00102C3F85E
S2144002809022D3F8942222F00102C3F89422BFF3BE
S2144002904F8FBFF36F8F0A201A4CA0470B20A04702
S2144002A00C20A0471020A0471120A047164B4FF423
S2144002B080721A61C3F8A0201A63A3F580634FF4D6
S2144002C000625A61C3F8A0205A66C3F890205A6567
S2144002D01A62C3F88420196F21F400611967596FB8
S2144002E021F400615967C3F8C020C3F8D420C3F88E
S2144002F0B020F8BD50180E4000ED00E0000C0E4057
S2144003000C08005AC903400000120E40C06C7047EB
S214400310806C70472DE9F041044688460E4B98475E
S214400320054620460D4B9847054013D00C4C04F12B
S214400330600603E0B4420DD010345DB120684045FD
S214400340F8D161682942F5D0E3689847636825EAA2
S2144003500305EFE7BDE8F0810D03400011034000C0
S2144003605004402008B50A210148024B984708BD72
S214400370000E0E401503400008B50B210148024B05
S214400380984708BD00100E401503400008B50C21E4
S2144003900148024B984708BD00120E401503400026
S2144003A008B510210148024B984708BD00140E407E
S2144003B01503400008B511210148024B984708BD77
S2144003C000160E401503400000F07F00054BC3F8B2
S2144003D00C01D3F80C2142F01022C3F80C21002067
S2144003E0704700BF00060E40FEE7000000B583B031
S2144003F0254B264A9A4210D0254B234A9A420CD285
S214400400013B9B1A23F00303043313441F4951F85E
S214400410040B42F8040B9A42F9D11E4B1E4A9A42EC
S2144004200AD2013B9B1A23F00303043313440021F2
S21440043042F8041B9342FBD1184A194B23F07F0322
S2144004409360EFF31083B3FA83F35B09019372B6BC
S214400450BFF35F8F0022134B1A700199124A13683C
S21440046043F470031360BFF34F8FBFF36F8F29B110
S21440047001220C4B1A70BFF35F8F62B60B4B984746
S2144004800B4B9847FEE700BF000040205C0640004C
S21440049034044020E40440203404402000ED00E0D2
S2144004A0000040000000402088ED00E0C504400009
S2144004B0B504400008B5024B9847002008BD00BF71
S2144004C0D501400070B50F4E0F4D761BB61018BFC5
S2144004D0002405D0013455F8043B9847A642F9D18C
S2144004E00A4E0B4D761B00F0A7F8B61018BF002436
S2144004F006D0013455F8043B9847A642F9D170BD62
S21440050070BD00BF44064000440640004C06400014
S21440051044064000024B13B1024800F005B870474D
S2144005200000000035054000002301461A461846E4
S21440053000F01EB838B50A4C0A4D641BA4100AD009
S21440054004F18043013B05EB8305013C55F8043933
S2144005509847002CF9D1BDE8384000F077B800BF86
S2144005605C06400058064000704700BF704700BF1A
S2144005702DE9F8432C4D0646286898460F46914686
S214400580FFF7F2FF294B1C68D4F84831002B3ED0C9
S2144005905A681F2A1CDC02F1010E76B103EB820179
S2144005A00124C1F88890D3F8880194402043022E55
S2144005B0C3F88801C1F8088123D00232C3F804E0AA
S2144005C0286843F82270FFF7D1FF0020BDE8F88383
S2144005D0174B0BB34FF4C870AFF300800346D8B147
S2144005E0D4F848210260002141600A46C4F8480118
S2144005F04FF0010EC0F88811C0F88C11002EDCD0E8
S214400600CCE7D3F88C110C43C3F88C41D5E704F5FE
S214400610A673C4F84831BBE72868FFF7A7FF4FF03A
S214400620FF30BDE8F88300BF300440203406400069
S2144006300000000008004020F8B500BFF8BC08BC29
S2144006409E467047150540008D014000F8B500BF36
S210400650F8BC08BC9E467047690140009C
S21440065C010000000000000000000000F4024020F2
S21440066C5C034020C4034020000000000000000053
S21440067C0000000000000000000000000000000029
S21440068C0000000000000000000000000000000019
S21440069C0000000000000000000000000000000009
S2144006AC00000000000000000000000000000000F9
S2144006BC00000000000000000000000000000000E9
S2144006CC00000000000000000000000000000000D9
S2144006DC00000000000000000000000000000000C9
S2144006EC00000000000000000000000000000000B9
S2144006FC00000000000000000000000000000000A9
S21440070C01000000000000000E33CDAB34126DE645
S21440071CECDE05000B0000000000000000000000AE
S21440072C0000000000000000000000000000000078
S21440073C0000000000000000000000000000000068
S21440074C0000000000000000000000000000000058
S21440075C0000000000000000000000000000000048
S208400A8CC0044020FD
S8044003EDCB
